{
  "_format": "hh-sol-artifact-1",
  "contractName": "Marketplace",
  "sourceName": "contracts/Marketplace.sol",
  "abi": [
    {
      "inputs": [
        {
          "internalType": "uint256",
          "name": "_feePercent",
          "type": "uint256"
        },
        {
          "internalType": "address",
          "name": "etherPriceFeed",
          "type": "address"
        }
      ],
      "stateMutability": "nonpayable",
      "type": "constructor"
    },
    {
      "anonymous": false,
      "inputs": [
        {
          "indexed": false,
          "internalType": "uint256",
          "name": "itemId",
          "type": "uint256"
        },
        {
          "indexed": true,
          "internalType": "address",
          "name": "nft",
          "type": "address"
        },
        {
          "indexed": false,
          "internalType": "uint256",
          "name": "tokenId",
          "type": "uint256"
        },
        {
          "indexed": false,
          "internalType": "uint256",
          "name": "price",
          "type": "uint256"
        },
        {
          "indexed": true,
          "internalType": "address",
          "name": "seller",
          "type": "address"
        },
        {
          "indexed": true,
          "internalType": "address",
          "name": "buyer",
          "type": "address"
        }
      ],
      "name": "Bought",
      "type": "event"
    },
    {
      "anonymous": false,
      "inputs": [
        {
          "indexed": false,
          "internalType": "uint256",
          "name": "itemId",
          "type": "uint256"
        },
        {
          "indexed": true,
          "internalType": "address",
          "name": "nft",
          "type": "address"
        },
        {
          "indexed": false,
          "internalType": "uint256",
          "name": "tokenId",
          "type": "uint256"
        },
        {
          "indexed": true,
          "internalType": "address",
          "name": "seller",
          "type": "address"
        }
      ],
      "name": "Delisted",
      "type": "event"
    },
    {
      "anonymous": false,
      "inputs": [
        {
          "indexed": false,
          "internalType": "uint256",
          "name": "itemId",
          "type": "uint256"
        },
        {
          "indexed": true,
          "internalType": "address",
          "name": "nft",
          "type": "address"
        },
        {
          "indexed": false,
          "internalType": "uint256",
          "name": "tokenId",
          "type": "uint256"
        },
        {
          "indexed": false,
          "internalType": "uint256",
          "name": "price",
          "type": "uint256"
        },
        {
          "indexed": true,
          "internalType": "address",
          "name": "seller",
          "type": "address"
        },
        {
          "indexed": false,
          "internalType": "address",
          "name": "paymentToken",
          "type": "address"
        }
      ],
      "name": "Offered",
      "type": "event"
    },
    {
      "inputs": [
        {
          "internalType": "uint256",
          "name": "_itemId",
          "type": "uint256"
        }
      ],
      "name": "delistItem",
      "outputs": [],
      "stateMutability": "nonpayable",
      "type": "function"
    },
    {
      "inputs": [],
      "name": "ethUsdPriceFeed",
      "outputs": [
        {
          "internalType": "contract AggregatorV3Interface",
          "name": "",
          "type": "address"
        }
      ],
      "stateMutability": "view",
      "type": "function"
    },
    {
      "inputs": [],
      "name": "feeAccount",
      "outputs": [
        {
          "internalType": "address payable",
          "name": "",
          "type": "address"
        }
      ],
      "stateMutability": "view",
      "type": "function"
    },
    {
      "inputs": [],
      "name": "feePercent",
      "outputs": [
        {
          "internalType": "uint256",
          "name": "",
          "type": "uint256"
        }
      ],
      "stateMutability": "view",
      "type": "function"
    },
    {
      "inputs": [],
      "name": "getEthPriceUsd",
      "outputs": [
        {
          "internalType": "uint256",
          "name": "",
          "type": "uint256"
        }
      ],
      "stateMutability": "view",
      "type": "function"
    },
    {
      "inputs": [
        {
          "internalType": "address",
          "name": "token",
          "type": "address"
        }
      ],
      "name": "getTokenPriceUsd",
      "outputs": [
        {
          "internalType": "uint256",
          "name": "",
          "type": "uint256"
        }
      ],
      "stateMutability": "view",
      "type": "function"
    },
    {
      "inputs": [
        {
          "internalType": "uint256",
          "name": "_itemId",
          "type": "uint256"
        }
      ],
      "name": "getTotalPrice",
      "outputs": [
        {
          "internalType": "uint256",
          "name": "",
          "type": "uint256"
        }
      ],
      "stateMutability": "view",
      "type": "function"
    },
    {
      "inputs": [],
      "name": "itemCount",
      "outputs": [
        {
          "internalType": "uint256",
          "name": "",
          "type": "uint256"
        }
      ],
      "stateMutability": "view",
      "type": "function"
    },
    {
      "inputs": [
        {
          "internalType": "uint256",
          "name": "",
          "type": "uint256"
        }
      ],
      "name": "items",
      "outputs": [
        {
          "internalType": "uint256",
          "name": "itemId",
          "type": "uint256"
        },
        {
          "internalType": "contract IERC721",
          "name": "nft",
          "type": "address"
        },
        {
          "internalType": "uint256",
          "name": "tokenId",
          "type": "uint256"
        },
        {
          "internalType": "uint256",
          "name": "price",
          "type": "uint256"
        },
        {
          "internalType": "address payable",
          "name": "seller",
          "type": "address"
        },
        {
          "internalType": "bool",
          "name": "sold",
          "type": "bool"
        },
        {
          "internalType": "address",
          "name": "paymentToken",
          "type": "address"
        }
      ],
      "stateMutability": "view",
      "type": "function"
    },
    {
      "inputs": [
        {
          "internalType": "contract IERC721",
          "name": "_nft",
          "type": "address"
        },
        {
          "internalType": "uint256",
          "name": "_tokenId",
          "type": "uint256"
        },
        {
          "internalType": "uint256",
          "name": "_price",
          "type": "uint256"
        },
        {
          "internalType": "address",
          "name": "_paymentToken",
          "type": "address"
        }
      ],
      "name": "makeItem",
      "outputs": [],
      "stateMutability": "nonpayable",
      "type": "function"
    },
    {
      "inputs": [
        {
          "internalType": "address",
          "name": "",
          "type": "address"
        }
      ],
      "name": "priceFeeds",
      "outputs": [
        {
          "internalType": "address",
          "name": "",
          "type": "address"
        }
      ],
      "stateMutability": "view",
      "type": "function"
    },
    {
      "inputs": [
        {
          "internalType": "uint256",
          "name": "_itemId",
          "type": "uint256"
        }
      ],
      "name": "purchaseItem",
      "outputs": [],
      "stateMutability": "payable",
      "type": "function"
    },
    {
      "inputs": [
        {
          "internalType": "address",
          "name": "token",
          "type": "address"
        },
        {
          "internalType": "address",
          "name": "feed",
          "type": "address"
        }
      ],
      "name": "setPriceFeed",
      "outputs": [],
      "stateMutability": "nonpayable",
      "type": "function"
    }
  ],
  "bytecode": "0x60c06040523480156200001157600080fd5b50604051620021ca380380620021ca8339818101604052810190620000379190620000f5565b60016000819055503373ffffffffffffffffffffffffffffffffffffffff1660808173ffffffffffffffffffffffffffffffffffffffff1660601b815250508160a0818152505080600260006101000a81548173ffffffffffffffffffffffffffffffffffffffff021916908373ffffffffffffffffffffffffffffffffffffffff1602179055505050620001a8565b600081519050620000d88162000174565b92915050565b600081519050620000ef816200018e565b92915050565b600080604083850312156200010957600080fd5b60006200011985828601620000de565b92505060206200012c85828601620000c7565b9150509250929050565b600062000143826200014a565b9050919050565b600073ffffffffffffffffffffffffffffffffffffffff82169050919050565b6000819050919050565b6200017f8162000136565b81146200018b57600080fd5b50565b62000199816200016a565b8114620001a557600080fd5b50565b60805160601c60a051611feb620001df60003960008181610d890152610e93015260008181610b7201526110730152611feb6000f3fe6080604052600436106100c25760003560e01c806376e112861161007f5780639dcb511a116100595780639dcb511a14610256578063bfb231d214610293578063ca7dd375146102d6578063d38ea5bf14610313576100c2565b806376e11286146101c5578063782e580d146101ee5780637fd6f15c1461022b576100c2565b806310061631146100c757806327636b88146100f05780632d121be41461011b57806342f6fb291461014457806365e17c9d1461016f5780636bfb0d011461019a575b600080fd5b3480156100d357600080fd5b506100ee60048036038101906100e99190611418565b61032f565b005b3480156100fc57600080fd5b506101056105f6565b6040516101129190611904565b60405180910390f35b34801561012757600080fd5b50610142600480360381019061013d91906113b5565b6106a6565b005b34801561015057600080fd5b50610159610b4a565b6040516101669190611769565b60405180910390f35b34801561017b57600080fd5b50610184610b70565b60405161019191906116e0565b60405180910390f35b3480156101a657600080fd5b506101af610b94565b6040516101bc9190611904565b60405180910390f35b3480156101d157600080fd5b506101ec60048036038101906101e79190611379565b610b9a565b005b3480156101fa57600080fd5b5061021560048036038101906102109190611350565b610c1c565b6040516102229190611904565b60405180910390f35b34801561023757600080fd5b50610240610d87565b60405161024d9190611904565b60405180910390f35b34801561026257600080fd5b5061027d60048036038101906102789190611350565b610dab565b60405161028a91906116c5565b60405180910390f35b34801561029f57600080fd5b506102ba60048036038101906102b59190611418565b610dde565b6040516102cd979695949392919061191f565b60405180910390f35b3480156102e257600080fd5b506102fd60048036038101906102f89190611418565b610e8d565b60405161030a9190611904565b60405180910390f35b61032d60048036038101906103289190611418565b610ef0565b005b610337611278565b600060036000838152602001908152602001600020905060008211801561036057506001548211155b61039f576040517f08c379a000000000000000000000000000000000000000000000000000000000815260040161039690611884565b60405180910390fd5b3373ffffffffffffffffffffffffffffffffffffffff168160040160009054906101000a900473ffffffffffffffffffffffffffffffffffffffff1673ffffffffffffffffffffffffffffffffffffffff1614610431576040517f08c379a000000000000000000000000000000000000000000000000000000000815260040161042890611864565b60405180910390fd5b8060040160149054906101000a900460ff1615610483576040517f08c379a000000000000000000000000000000000000000000000000000000000815260040161047a906118e4565b60405180910390fd5b8060010160009054906101000a900473ffffffffffffffffffffffffffffffffffffffff1673ffffffffffffffffffffffffffffffffffffffff166323b872dd308360040160009054906101000a900473ffffffffffffffffffffffffffffffffffffffff1684600201546040518463ffffffff1660e01b815260040161050c939291906116fb565b600060405180830381600087803b15801561052657600080fd5b505af115801561053a573d6000803e3d6000fd5b5050505060018160040160146101000a81548160ff0219169083151502179055503373ffffffffffffffffffffffffffffffffffffffff168160010160009054906101000a900473ffffffffffffffffffffffffffffffffffffffff1673ffffffffffffffffffffffffffffffffffffffff167f5c5ac8b6009b07d6f0528b35b15c24367e399df2240a9ba044a0acf1c67365d18484600201546040516105e292919061198e565b60405180910390a3506105f36112c8565b50565b600080600260009054906101000a900473ffffffffffffffffffffffffffffffffffffffff1673ffffffffffffffffffffffffffffffffffffffff1663feaf968c6040518163ffffffff1660e01b815260040160a06040518083038186803b15801561066157600080fd5b505afa158015610675573d6000803e3d6000fd5b505050506040513d601f19601f820116820180604052508101906106999190611441565b5050509150508091505090565b6106ae611278565b600073ffffffffffffffffffffffffffffffffffffffff168173ffffffffffffffffffffffffffffffffffffffff16141561071e576040517f08c379a000000000000000000000000000000000000000000000000000000000815260040161071590611844565b60405180910390fd5b60008211610761576040517f08c379a0000000000000000000000000000000000000000000000000000000008152600401610758906117c4565b60405180910390fd5b600073ffffffffffffffffffffffffffffffffffffffff16600460008373ffffffffffffffffffffffffffffffffffffffff1673ffffffffffffffffffffffffffffffffffffffff16815260200190815260200160002060009054906101000a900473ffffffffffffffffffffffffffffffffffffffff1673ffffffffffffffffffffffffffffffffffffffff161415610830576040517f08c379a000000000000000000000000000000000000000000000000000000000815260040161082790611804565b60405180910390fd5b6000670de0b6b3a764000061084483610c1c565b8461084f9190611acb565b6108599190611a9a565b9050633b9aca008110156108a2576040517f08c379a0000000000000000000000000000000000000000000000000000000008152600401610899906118a4565b60405180910390fd5b600160008154809291906108b590611c63565b91905055508473ffffffffffffffffffffffffffffffffffffffff166323b872dd3330876040518463ffffffff1660e01b81526004016108f793929190611732565b600060405180830381600087803b15801561091157600080fd5b505af1158015610925573d6000803e3d6000fd5b505050506040518060e0016040528060015481526020018673ffffffffffffffffffffffffffffffffffffffff1681526020018581526020018481526020013373ffffffffffffffffffffffffffffffffffffffff1681526020016000151581526020018373ffffffffffffffffffffffffffffffffffffffff168152506003600060015481526020019081526020016000206000820151816000015560208201518160010160006101000a81548173ffffffffffffffffffffffffffffffffffffffff021916908373ffffffffffffffffffffffffffffffffffffffff160217905550604082015181600201556060820151816003015560808201518160040160006101000a81548173ffffffffffffffffffffffffffffffffffffffff021916908373ffffffffffffffffffffffffffffffffffffffff16021790555060a08201518160040160146101000a81548160ff02191690831515021790555060c08201518160050160006101000a81548173ffffffffffffffffffffffffffffffffffffffff021916908373ffffffffffffffffffffffffffffffffffffffff1602179055509050503373ffffffffffffffffffffffffffffffffffffffff168573ffffffffffffffffffffffffffffffffffffffff167fe4ef384ea82c018889dc208d54c1dfda9f0e81eaec76e042966cb59d46fd8d29600154878787604051610b3394939291906119ee565b60405180910390a350610b446112c8565b50505050565b600260009054906101000a900473ffffffffffffffffffffffffffffffffffffffff1681565b7f000000000000000000000000000000000000000000000000000000000000000081565b60015481565b80600460008473ffffffffffffffffffffffffffffffffffffffff1673ffffffffffffffffffffffffffffffffffffffff16815260200190815260200160002060006101000a81548173ffffffffffffffffffffffffffffffffffffffff021916908373ffffffffffffffffffffffffffffffffffffffff1602179055505050565b600080600460008473ffffffffffffffffffffffffffffffffffffffff1673ffffffffffffffffffffffffffffffffffffffff16815260200190815260200160002060009054906101000a900473ffffffffffffffffffffffffffffffffffffffff169050600073ffffffffffffffffffffffffffffffffffffffff168173ffffffffffffffffffffffffffffffffffffffff161415610cf1576040517f08c379a0000000000000000000000000000000000000000000000000000000008152600401610ce890611784565b60405180910390fd5b600081905060008173ffffffffffffffffffffffffffffffffffffffff1663feaf968c6040518163ffffffff1660e01b815260040160a06040518083038186803b158015610d3e57600080fd5b505afa158015610d52573d6000803e3d6000fd5b505050506040513d601f19601f82011682018060405250810190610d769190611441565b505050915050809350505050919050565b7f000000000000000000000000000000000000000000000000000000000000000081565b60046020528060005260406000206000915054906101000a900473ffffffffffffffffffffffffffffffffffffffff1681565b60036020528060005260406000206000915090508060000154908060010160009054906101000a900473ffffffffffffffffffffffffffffffffffffffff16908060020154908060030154908060040160009054906101000a900473ffffffffffffffffffffffffffffffffffffffff16908060040160149054906101000a900460ff16908060050160009054906101000a900473ffffffffffffffffffffffffffffffffffffffff16905087565b600060647f00000000000000000000000000000000000000000000000000000000000000006064610ebe9190611a44565b6003600085815260200190815260200160002060030154610edf9190611acb565b610ee99190611a9a565b9050919050565b610ef8611278565b6000600360008381526020019081526020016000209050600082118015610f2157506001548211155b610f60576040517f08c379a0000000000000000000000000000000000000000000000000000000008152600401610f5790611824565b60405180910390fd5b8060040160149054906101000a900460ff1615610fb2576040517f08c379a0000000000000000000000000000000000000000000000000000000008152600401610fa9906117a4565b60405180910390fd5b6000610fbd83610e8d565b905080341015611002576040517f08c379a0000000000000000000000000000000000000000000000000000000008152600401610ff9906117e4565b60405180910390fd5b8160040160009054906101000a900473ffffffffffffffffffffffffffffffffffffffff1673ffffffffffffffffffffffffffffffffffffffff166108fc83600301549081150290604051600060405180830381858888f19350505050158015611070573d6000803e3d6000fd5b507f000000000000000000000000000000000000000000000000000000000000000073ffffffffffffffffffffffffffffffffffffffff166108fc8360030154836110bb9190611b25565b9081150290604051600060405180830381858888f193505050501580156110e6573d6000803e3d6000fd5b5060018260040160146101000a81548160ff0219169083151502179055508160010160009054906101000a900473ffffffffffffffffffffffffffffffffffffffff1673ffffffffffffffffffffffffffffffffffffffff166323b872dd303385600201546040518463ffffffff1660e01b815260040161116993929190611732565b600060405180830381600087803b15801561118357600080fd5b505af1158015611197573d6000803e3d6000fd5b505050503373ffffffffffffffffffffffffffffffffffffffff168260040160009054906101000a900473ffffffffffffffffffffffffffffffffffffffff1673ffffffffffffffffffffffffffffffffffffffff168360010160009054906101000a900473ffffffffffffffffffffffffffffffffffffffff1673ffffffffffffffffffffffffffffffffffffffff167f8b4c9c8a607d67b321582dd8461041b1dc2ceeca70c8b7f37f8e02095cf2e76d8686600201548760030154604051611263939291906119b7565b60405180910390a450506112756112c8565b50565b600260005414156112be576040517f08c379a00000000000000000000000000000000000000000000000000000000081526004016112b5906118c4565b60405180910390fd5b6002600081905550565b6001600081905550565b6000813590506112e181611f42565b92915050565b6000813590506112f681611f59565b92915050565b60008151905061130b81611f70565b92915050565b60008135905061132081611f87565b92915050565b60008151905061133581611f87565b92915050565b60008151905061134a81611f9e565b92915050565b60006020828403121561136257600080fd5b6000611370848285016112d2565b91505092915050565b6000806040838503121561138c57600080fd5b600061139a858286016112d2565b92505060206113ab858286016112d2565b9150509250929050565b600080600080608085870312156113cb57600080fd5b60006113d9878288016112e7565b94505060206113ea87828801611311565b93505060406113fb87828801611311565b925050606061140c878288016112d2565b91505092959194509250565b60006020828403121561142a57600080fd5b600061143884828501611311565b91505092915050565b600080600080600060a0868803121561145957600080fd5b60006114678882890161133b565b9550506020611478888289016112fc565b945050604061148988828901611326565b935050606061149a88828901611326565b92505060806114ab8882890161133b565b9150509295509295909350565b6114c181611be5565b82525050565b6114d081611b6b565b82525050565b6114df81611b59565b82525050565b6114ee81611b7d565b82525050565b6114fd81611bf7565b82525050565b61150c81611c1b565b82525050565b600061151f601b83611a33565b915061152a82611d0a565b602082019050919050565b6000611542601183611a33565b915061154d82611d33565b602082019050919050565b6000611565601f83611a33565b915061157082611d5c565b602082019050919050565b6000611588603383611a33565b915061159382611d85565b604082019050919050565b60006115ab601183611a33565b91506115b682611dd4565b602082019050919050565b60006115ce601283611a33565b91506115d982611dfd565b602082019050919050565b60006115f1601f83611a33565b91506115fc82611e26565b602082019050919050565b6000611614602483611a33565b915061161f82611e4f565b604082019050919050565b6000611637601283611a33565b915061164282611e9e565b602082019050919050565b600061165a601483611a33565b915061166582611ec7565b602082019050919050565b600061167d601f83611a33565b915061168882611ef0565b602082019050919050565b60006116a0601183611a33565b91506116ab82611f19565b602082019050919050565b6116bf81611bc5565b82525050565b60006020820190506116da60008301846114d6565b92915050565b60006020820190506116f560008301846114c7565b92915050565b600060608201905061171060008301866114d6565b61171d60208301856114b8565b61172a60408301846116b6565b949350505050565b600060608201905061174760008301866114d6565b61175460208301856114d6565b61176160408301846116b6565b949350505050565b600060208201905061177e60008301846114f4565b92915050565b6000602082019050818103600083015261179d81611512565b9050919050565b600060208201905081810360008301526117bd81611535565b9050919050565b600060208201905081810360008301526117dd81611558565b9050919050565b600060208201905081810360008301526117fd8161157b565b9050919050565b6000602082019050818103600083015261181d8161159e565b9050919050565b6000602082019050818103600083015261183d816115c1565b9050919050565b6000602082019050818103600083015261185d816115e4565b9050919050565b6000602082019050818103600083015261187d81611607565b9050919050565b6000602082019050818103600083015261189d8161162a565b9050919050565b600060208201905081810360008301526118bd8161164d565b9050919050565b600060208201905081810360008301526118dd81611670565b9050919050565b600060208201905081810360008301526118fd81611693565b9050919050565b600060208201905061191960008301846116b6565b92915050565b600060e082019050611934600083018a6116b6565b6119416020830189611503565b61194e60408301886116b6565b61195b60608301876116b6565b61196860808301866114c7565b61197560a08301856114e5565b61198260c08301846114d6565b98975050505050505050565b60006040820190506119a360008301856116b6565b6119b060208301846116b6565b9392505050565b60006060820190506119cc60008301866116b6565b6119d960208301856116b6565b6119e660408301846116b6565b949350505050565b6000608082019050611a0360008301876116b6565b611a1060208301866116b6565b611a1d60408301856116b6565b611a2a60608301846114d6565b95945050505050565b600082825260208201905092915050565b6000611a4f82611bc5565b9150611a5a83611bc5565b9250827fffffffffffffffffffffffffffffffffffffffffffffffffffffffffffffffff03821115611a8f57611a8e611cac565b5b828201905092915050565b6000611aa582611bc5565b9150611ab083611bc5565b925082611ac057611abf611cdb565b5b828204905092915050565b6000611ad682611bc5565b9150611ae183611bc5565b9250817fffffffffffffffffffffffffffffffffffffffffffffffffffffffffffffffff0483118215151615611b1a57611b19611cac565b5b828202905092915050565b6000611b3082611bc5565b9150611b3b83611bc5565b925082821015611b4e57611b4d611cac565b5b828203905092915050565b6000611b6482611ba5565b9050919050565b6000611b7682611ba5565b9050919050565b60008115159050919050565b6000611b9482611b59565b9050919050565b6000819050919050565b600073ffffffffffffffffffffffffffffffffffffffff82169050919050565b6000819050919050565b600069ffffffffffffffffffff82169050919050565b6000611bf082611c3f565b9050919050565b6000611c0282611c09565b9050919050565b6000611c1482611ba5565b9050919050565b6000611c2682611c2d565b9050919050565b6000611c3882611ba5565b9050919050565b6000611c4a82611c51565b9050919050565b6000611c5c82611ba5565b9050919050565b6000611c6e82611bc5565b91507fffffffffffffffffffffffffffffffffffffffffffffffffffffffffffffffff821415611ca157611ca0611cac565b5b600182019050919050565b7f4e487b7100000000000000000000000000000000000000000000000000000000600052601160045260246000fd5b7f4e487b7100000000000000000000000000000000000000000000000000000000600052601260045260246000fd5b7f4e6f20436861696e6c696e6b206665656420666f7220746f6b656e0000000000600082015250565b7f6974656d20616c726561647920736f6c64000000000000000000000000000000600082015250565b7f5072696365206d7573742062652067726561746572207468616e207a65726f00600082015250565b7f6e6f7420656e6f75676820657468657220746f20636f766572206974656d207060008201527f7269636520616e64206d61726b65742066656500000000000000000000000000602082015250565b7f556e737570706f7274656420746f6b656e000000000000000000000000000000600082015250565b7f6974656d20646f65736e27742065786973740000000000000000000000000000600082015250565b7f5061796d656e7420746f6b656e206d75737420626520457468657265756d2000600082015250565b7f4f6e6c79207468652073656c6c65722063616e2064656c69737420746869732060008201527f6974656d00000000000000000000000000000000000000000000000000000000602082015250565b7f4974656d20646f65736e27742065786973740000000000000000000000000000600082015250565b7f5072696365206d757374206265203e3d20243130000000000000000000000000600082015250565b7f5265656e7472616e637947756172643a207265656e7472616e742063616c6c00600082015250565b7f4974656d20616c726561647920736f6c64000000000000000000000000000000600082015250565b611f4b81611b59565b8114611f5657600080fd5b50565b611f6281611b89565b8114611f6d57600080fd5b50565b611f7981611b9b565b8114611f8457600080fd5b50565b611f9081611bc5565b8114611f9b57600080fd5b50565b611fa781611bcf565b8114611fb257600080fd5b5056fea2646970667358221220deddece98dd667d901585e94d4fae23665a8cb50a242da1f383631552b5012ba64736f6c63430008040033",
  "linkReferences": {},
  "deployedLinkReferences": {}
}