{
  "_format": "hh-sol-artifact-1",
  "contractName": "Marketplace",
  "sourceName": "contracts/Marketplace.sol",
  "abi": [
    {
      "inputs": [
        {
          "internalType": "uint256",
          "name": "_feePercent",
          "type": "uint256"
        },
        {
          "internalType": "address",
          "name": "etherPriceFeed",
          "type": "address"
        }
      ],
      "stateMutability": "nonpayable",
      "type": "constructor"
    },
    {
      "anonymous": false,
      "inputs": [
        {
          "indexed": false,
          "internalType": "uint256",
          "name": "itemId",
          "type": "uint256"
        },
        {
          "indexed": true,
          "internalType": "address",
          "name": "nft",
          "type": "address"
        },
        {
          "indexed": false,
          "internalType": "uint256",
          "name": "tokenId",
          "type": "uint256"
        },
        {
          "indexed": false,
          "internalType": "uint256",
          "name": "price",
          "type": "uint256"
        },
        {
          "indexed": true,
          "internalType": "address",
          "name": "seller",
          "type": "address"
        },
        {
          "indexed": true,
          "internalType": "address",
          "name": "buyer",
          "type": "address"
        }
      ],
      "name": "Bought",
      "type": "event"
    },
    {
      "anonymous": false,
      "inputs": [
        {
          "indexed": false,
          "internalType": "uint256",
          "name": "itemId",
          "type": "uint256"
        },
        {
          "indexed": true,
          "internalType": "address",
          "name": "nft",
          "type": "address"
        },
        {
          "indexed": false,
          "internalType": "uint256",
          "name": "tokenId",
          "type": "uint256"
        },
        {
          "indexed": true,
          "internalType": "address",
          "name": "seller",
          "type": "address"
        }
      ],
      "name": "Delisted",
      "type": "event"
    },
    {
      "anonymous": false,
      "inputs": [
        {
          "indexed": false,
          "internalType": "uint256",
          "name": "itemId",
          "type": "uint256"
        },
        {
          "indexed": true,
          "internalType": "address",
          "name": "nft",
          "type": "address"
        },
        {
          "indexed": false,
          "internalType": "uint256",
          "name": "tokenId",
          "type": "uint256"
        },
        {
          "indexed": false,
          "internalType": "uint256",
          "name": "price",
          "type": "uint256"
        },
        {
          "indexed": true,
          "internalType": "address",
          "name": "seller",
          "type": "address"
        },
        {
          "indexed": false,
          "internalType": "address",
          "name": "paymentToken",
          "type": "address"
        }
      ],
      "name": "Offered",
      "type": "event"
    },
    {
      "inputs": [
        {
          "internalType": "uint256",
          "name": "_itemId",
          "type": "uint256"
        }
      ],
      "name": "delistItem",
      "outputs": [],
      "stateMutability": "nonpayable",
      "type": "function"
    },
    {
      "inputs": [],
      "name": "ethUsdPriceFeed",
      "outputs": [
        {
          "internalType": "contract AggregatorV3Interface",
          "name": "",
          "type": "address"
        }
      ],
      "stateMutability": "view",
      "type": "function"
    },
    {
      "inputs": [],
      "name": "feeAccount",
      "outputs": [
        {
          "internalType": "address payable",
          "name": "",
          "type": "address"
        }
      ],
      "stateMutability": "view",
      "type": "function"
    },
    {
      "inputs": [],
      "name": "feePercent",
      "outputs": [
        {
          "internalType": "uint256",
          "name": "",
          "type": "uint256"
        }
      ],
      "stateMutability": "view",
      "type": "function"
    },
    {
      "inputs": [],
      "name": "getEthPriceUsd",
      "outputs": [
        {
          "internalType": "uint256",
          "name": "",
          "type": "uint256"
        }
      ],
      "stateMutability": "view",
      "type": "function"
    },
    {
      "inputs": [
        {
          "internalType": "address",
          "name": "token",
          "type": "address"
        }
      ],
      "name": "getTokenPriceUsd",
      "outputs": [
        {
          "internalType": "uint256",
          "name": "",
          "type": "uint256"
        }
      ],
      "stateMutability": "view",
      "type": "function"
    },
    {
      "inputs": [
        {
          "internalType": "uint256",
          "name": "_itemId",
          "type": "uint256"
        }
      ],
      "name": "getTotalPrice",
      "outputs": [
        {
          "internalType": "uint256",
          "name": "",
          "type": "uint256"
        }
      ],
      "stateMutability": "view",
      "type": "function"
    },
    {
      "inputs": [],
      "name": "itemCount",
      "outputs": [
        {
          "internalType": "uint256",
          "name": "",
          "type": "uint256"
        }
      ],
      "stateMutability": "view",
      "type": "function"
    },
    {
      "inputs": [
        {
          "internalType": "uint256",
          "name": "",
          "type": "uint256"
        }
      ],
      "name": "items",
      "outputs": [
        {
          "internalType": "uint256",
          "name": "itemId",
          "type": "uint256"
        },
        {
          "internalType": "contract IERC721",
          "name": "nft",
          "type": "address"
        },
        {
          "internalType": "uint256",
          "name": "tokenId",
          "type": "uint256"
        },
        {
          "internalType": "uint256",
          "name": "price",
          "type": "uint256"
        },
        {
          "internalType": "address payable",
          "name": "seller",
          "type": "address"
        },
        {
          "internalType": "bool",
          "name": "sold",
          "type": "bool"
        },
        {
          "internalType": "address",
          "name": "paymentToken",
          "type": "address"
        }
      ],
      "stateMutability": "view",
      "type": "function"
    },
    {
      "inputs": [
        {
          "internalType": "contract IERC721",
          "name": "_nft",
          "type": "address"
        },
        {
          "internalType": "uint256",
          "name": "_tokenId",
          "type": "uint256"
        },
        {
          "internalType": "uint256",
          "name": "_price",
          "type": "uint256"
        },
        {
          "internalType": "address",
          "name": "_paymentToken",
          "type": "address"
        }
      ],
      "name": "makeItem",
      "outputs": [],
      "stateMutability": "nonpayable",
      "type": "function"
    },
    {
      "inputs": [
        {
          "internalType": "address",
          "name": "",
          "type": "address"
        }
      ],
      "name": "priceFeeds",
      "outputs": [
        {
          "internalType": "address",
          "name": "",
          "type": "address"
        }
      ],
      "stateMutability": "view",
      "type": "function"
    },
    {
      "inputs": [
        {
          "internalType": "uint256",
          "name": "_itemId",
          "type": "uint256"
        }
      ],
      "name": "purchaseItem",
      "outputs": [],
      "stateMutability": "payable",
      "type": "function"
    },
    {
      "inputs": [
        {
          "internalType": "address",
          "name": "token",
          "type": "address"
        },
        {
          "internalType": "address",
          "name": "feed",
          "type": "address"
        }
      ],
      "name": "setPriceFeed",
      "outputs": [],
      "stateMutability": "nonpayable",
      "type": "function"
    }
  ],
  "bytecode": "0x60c06040523480156200001157600080fd5b50604051620020ee380380620020ee8339818101604052810190620000379190620000f5565b60016000819055503373ffffffffffffffffffffffffffffffffffffffff1660808173ffffffffffffffffffffffffffffffffffffffff1660601b815250508160a0818152505080600260006101000a81548173ffffffffffffffffffffffffffffffffffffffff021916908373ffffffffffffffffffffffffffffffffffffffff1602179055505050620001a8565b600081519050620000d88162000174565b92915050565b600081519050620000ef816200018e565b92915050565b600080604083850312156200010957600080fd5b60006200011985828601620000de565b92505060206200012c85828601620000c7565b9150509250929050565b600062000143826200014a565b9050919050565b600073ffffffffffffffffffffffffffffffffffffffff82169050919050565b6000819050919050565b6200017f8162000136565b81146200018b57600080fd5b50565b62000199816200016a565b8114620001a557600080fd5b50565b60805160601c60a051611f0f620001df60003960008181610d190152610e23015260008181610b0201526110030152611f0f6000f3fe6080604052600436106100c25760003560e01c806376e112861161007f5780639dcb511a116100595780639dcb511a14610256578063bfb231d214610293578063ca7dd375146102d6578063d38ea5bf14610313576100c2565b806376e11286146101c5578063782e580d146101ee5780637fd6f15c1461022b576100c2565b806310061631146100c757806327636b88146100f05780632d121be41461011b57806342f6fb291461014457806365e17c9d1461016f5780636bfb0d011461019a575b600080fd5b3480156100d357600080fd5b506100ee60048036038101906100e991906113a8565b61032f565b005b3480156100fc57600080fd5b506101056105f6565b6040516101129190611851565b60405180910390f35b34801561012757600080fd5b50610142600480360381019061013d9190611345565b6106a6565b005b34801561015057600080fd5b50610159610ada565b60405161016691906116d6565b60405180910390f35b34801561017b57600080fd5b50610184610b00565b604051610191919061164d565b60405180910390f35b3480156101a657600080fd5b506101af610b24565b6040516101bc9190611851565b60405180910390f35b3480156101d157600080fd5b506101ec60048036038101906101e79190611309565b610b2a565b005b3480156101fa57600080fd5b50610215600480360381019061021091906112e0565b610bac565b6040516102229190611851565b60405180910390f35b34801561023757600080fd5b50610240610d17565b60405161024d9190611851565b60405180910390f35b34801561026257600080fd5b5061027d600480360381019061027891906112e0565b610d3b565b60405161028a9190611632565b60405180910390f35b34801561029f57600080fd5b506102ba60048036038101906102b591906113a8565b610d6e565b6040516102cd979695949392919061186c565b60405180910390f35b3480156102e257600080fd5b506102fd60048036038101906102f891906113a8565b610e1d565b60405161030a9190611851565b60405180910390f35b61032d600480360381019061032891906113a8565b610e80565b005b610337611208565b600060036000838152602001908152602001600020905060008211801561036057506001548211155b61039f576040517f08c379a0000000000000000000000000000000000000000000000000000000008152600401610396906117d1565b60405180910390fd5b3373ffffffffffffffffffffffffffffffffffffffff168160040160009054906101000a900473ffffffffffffffffffffffffffffffffffffffff1673ffffffffffffffffffffffffffffffffffffffff1614610431576040517f08c379a0000000000000000000000000000000000000000000000000000000008152600401610428906117b1565b60405180910390fd5b8060040160149054906101000a900460ff1615610483576040517f08c379a000000000000000000000000000000000000000000000000000000000815260040161047a90611831565b60405180910390fd5b8060010160009054906101000a900473ffffffffffffffffffffffffffffffffffffffff1673ffffffffffffffffffffffffffffffffffffffff166323b872dd308360040160009054906101000a900473ffffffffffffffffffffffffffffffffffffffff1684600201546040518463ffffffff1660e01b815260040161050c93929190611668565b600060405180830381600087803b15801561052657600080fd5b505af115801561053a573d6000803e3d6000fd5b5050505060018160040160146101000a81548160ff0219169083151502179055503373ffffffffffffffffffffffffffffffffffffffff168160010160009054906101000a900473ffffffffffffffffffffffffffffffffffffffff1673ffffffffffffffffffffffffffffffffffffffff167f5c5ac8b6009b07d6f0528b35b15c24367e399df2240a9ba044a0acf1c67365d18484600201546040516105e29291906118db565b60405180910390a3506105f3611258565b50565b600080600260009054906101000a900473ffffffffffffffffffffffffffffffffffffffff1673ffffffffffffffffffffffffffffffffffffffff1663feaf968c6040518163ffffffff1660e01b815260040160a06040518083038186803b15801561066157600080fd5b505afa158015610675573d6000803e3d6000fd5b505050506040513d601f19601f8201168201806040525081019061069991906113d1565b5050509150508091505090565b6106ae611208565b600082116106f1576040517f08c379a00000000000000000000000000000000000000000000000000000000081526004016106e890611731565b60405180910390fd5b600073ffffffffffffffffffffffffffffffffffffffff16600460008373ffffffffffffffffffffffffffffffffffffffff1673ffffffffffffffffffffffffffffffffffffffff16815260200190815260200160002060009054906101000a900473ffffffffffffffffffffffffffffffffffffffff1673ffffffffffffffffffffffffffffffffffffffff1614156107c0576040517f08c379a00000000000000000000000000000000000000000000000000000000081526004016107b790611771565b60405180910390fd5b6000670de0b6b3a76400006107d483610bac565b846107df9190611a18565b6107e991906119e7565b9050633b9aca00811015610832576040517f08c379a0000000000000000000000000000000000000000000000000000000008152600401610829906117f1565b60405180910390fd5b6001600081548092919061084590611bb0565b91905055508473ffffffffffffffffffffffffffffffffffffffff166323b872dd3330876040518463ffffffff1660e01b81526004016108879392919061169f565b600060405180830381600087803b1580156108a157600080fd5b505af11580156108b5573d6000803e3d6000fd5b505050506040518060e0016040528060015481526020018673ffffffffffffffffffffffffffffffffffffffff1681526020018581526020018481526020013373ffffffffffffffffffffffffffffffffffffffff1681526020016000151581526020018373ffffffffffffffffffffffffffffffffffffffff168152506003600060015481526020019081526020016000206000820151816000015560208201518160010160006101000a81548173ffffffffffffffffffffffffffffffffffffffff021916908373ffffffffffffffffffffffffffffffffffffffff160217905550604082015181600201556060820151816003015560808201518160040160006101000a81548173ffffffffffffffffffffffffffffffffffffffff021916908373ffffffffffffffffffffffffffffffffffffffff16021790555060a08201518160040160146101000a81548160ff02191690831515021790555060c08201518160050160006101000a81548173ffffffffffffffffffffffffffffffffffffffff021916908373ffffffffffffffffffffffffffffffffffffffff1602179055509050503373ffffffffffffffffffffffffffffffffffffffff168573ffffffffffffffffffffffffffffffffffffffff167fe4ef384ea82c018889dc208d54c1dfda9f0e81eaec76e042966cb59d46fd8d29600154878787604051610ac3949392919061193b565b60405180910390a350610ad4611258565b50505050565b600260009054906101000a900473ffffffffffffffffffffffffffffffffffffffff1681565b7f000000000000000000000000000000000000000000000000000000000000000081565b60015481565b80600460008473ffffffffffffffffffffffffffffffffffffffff1673ffffffffffffffffffffffffffffffffffffffff16815260200190815260200160002060006101000a81548173ffffffffffffffffffffffffffffffffffffffff021916908373ffffffffffffffffffffffffffffffffffffffff1602179055505050565b600080600460008473ffffffffffffffffffffffffffffffffffffffff1673ffffffffffffffffffffffffffffffffffffffff16815260200190815260200160002060009054906101000a900473ffffffffffffffffffffffffffffffffffffffff169050600073ffffffffffffffffffffffffffffffffffffffff168173ffffffffffffffffffffffffffffffffffffffff161415610c81576040517f08c379a0000000000000000000000000000000000000000000000000000000008152600401610c78906116f1565b60405180910390fd5b600081905060008173ffffffffffffffffffffffffffffffffffffffff1663feaf968c6040518163ffffffff1660e01b815260040160a06040518083038186803b158015610cce57600080fd5b505afa158015610ce2573d6000803e3d6000fd5b505050506040513d601f19601f82011682018060405250810190610d0691906113d1565b505050915050809350505050919050565b7f000000000000000000000000000000000000000000000000000000000000000081565b60046020528060005260406000206000915054906101000a900473ffffffffffffffffffffffffffffffffffffffff1681565b60036020528060005260406000206000915090508060000154908060010160009054906101000a900473ffffffffffffffffffffffffffffffffffffffff16908060020154908060030154908060040160009054906101000a900473ffffffffffffffffffffffffffffffffffffffff16908060040160149054906101000a900460ff16908060050160009054906101000a900473ffffffffffffffffffffffffffffffffffffffff16905087565b600060647f00000000000000000000000000000000000000000000000000000000000000006064610e4e9190611991565b6003600085815260200190815260200160002060030154610e6f9190611a18565b610e7991906119e7565b9050919050565b610e88611208565b6000600360008381526020019081526020016000209050600082118015610eb157506001548211155b610ef0576040517f08c379a0000000000000000000000000000000000000000000000000000000008152600401610ee790611791565b60405180910390fd5b8060040160149054906101000a900460ff1615610f42576040517f08c379a0000000000000000000000000000000000000000000000000000000008152600401610f3990611711565b60405180910390fd5b6000610f4d83610e1d565b905080341015610f92576040517f08c379a0000000000000000000000000000000000000000000000000000000008152600401610f8990611751565b60405180910390fd5b8160040160009054906101000a900473ffffffffffffffffffffffffffffffffffffffff1673ffffffffffffffffffffffffffffffffffffffff166108fc83600301549081150290604051600060405180830381858888f19350505050158015611000573d6000803e3d6000fd5b507f000000000000000000000000000000000000000000000000000000000000000073ffffffffffffffffffffffffffffffffffffffff166108fc83600301548361104b9190611a72565b9081150290604051600060405180830381858888f19350505050158015611076573d6000803e3d6000fd5b5060018260040160146101000a81548160ff0219169083151502179055508160010160009054906101000a900473ffffffffffffffffffffffffffffffffffffffff1673ffffffffffffffffffffffffffffffffffffffff166323b872dd303385600201546040518463ffffffff1660e01b81526004016110f99392919061169f565b600060405180830381600087803b15801561111357600080fd5b505af1158015611127573d6000803e3d6000fd5b505050503373ffffffffffffffffffffffffffffffffffffffff168260040160009054906101000a900473ffffffffffffffffffffffffffffffffffffffff1673ffffffffffffffffffffffffffffffffffffffff168360010160009054906101000a900473ffffffffffffffffffffffffffffffffffffffff1673ffffffffffffffffffffffffffffffffffffffff167f8b4c9c8a607d67b321582dd8461041b1dc2ceeca70c8b7f37f8e02095cf2e76d86866002015487600301546040516111f393929190611904565b60405180910390a45050611205611258565b50565b6002600054141561124e576040517f08c379a000000000000000000000000000000000000000000000000000000000815260040161124590611811565b60405180910390fd5b6002600081905550565b6001600081905550565b60008135905061127181611e66565b92915050565b60008135905061128681611e7d565b92915050565b60008151905061129b81611e94565b92915050565b6000813590506112b081611eab565b92915050565b6000815190506112c581611eab565b92915050565b6000815190506112da81611ec2565b92915050565b6000602082840312156112f257600080fd5b600061130084828501611262565b91505092915050565b6000806040838503121561131c57600080fd5b600061132a85828601611262565b925050602061133b85828601611262565b9150509250929050565b6000806000806080858703121561135b57600080fd5b600061136987828801611277565b945050602061137a878288016112a1565b935050604061138b878288016112a1565b925050606061139c87828801611262565b91505092959194509250565b6000602082840312156113ba57600080fd5b60006113c8848285016112a1565b91505092915050565b600080600080600060a086880312156113e957600080fd5b60006113f7888289016112cb565b95505060206114088882890161128c565b9450506040611419888289016112b6565b935050606061142a888289016112b6565b925050608061143b888289016112cb565b9150509295509295909350565b61145181611b32565b82525050565b61146081611ab8565b82525050565b61146f81611aa6565b82525050565b61147e81611aca565b82525050565b61148d81611b44565b82525050565b61149c81611b68565b82525050565b60006114af601b83611980565b91506114ba82611c57565b602082019050919050565b60006114d2601183611980565b91506114dd82611c80565b602082019050919050565b60006114f5601f83611980565b915061150082611ca9565b602082019050919050565b6000611518603383611980565b915061152382611cd2565b604082019050919050565b600061153b601183611980565b915061154682611d21565b602082019050919050565b600061155e601283611980565b915061156982611d4a565b602082019050919050565b6000611581602483611980565b915061158c82611d73565b604082019050919050565b60006115a4601283611980565b91506115af82611dc2565b602082019050919050565b60006115c7601483611980565b91506115d282611deb565b602082019050919050565b60006115ea601f83611980565b91506115f582611e14565b602082019050919050565b600061160d601183611980565b915061161882611e3d565b602082019050919050565b61162c81611b12565b82525050565b60006020820190506116476000830184611466565b92915050565b60006020820190506116626000830184611457565b92915050565b600060608201905061167d6000830186611466565b61168a6020830185611448565b6116976040830184611623565b949350505050565b60006060820190506116b46000830186611466565b6116c16020830185611466565b6116ce6040830184611623565b949350505050565b60006020820190506116eb6000830184611484565b92915050565b6000602082019050818103600083015261170a816114a2565b9050919050565b6000602082019050818103600083015261172a816114c5565b9050919050565b6000602082019050818103600083015261174a816114e8565b9050919050565b6000602082019050818103600083015261176a8161150b565b9050919050565b6000602082019050818103600083015261178a8161152e565b9050919050565b600060208201905081810360008301526117aa81611551565b9050919050565b600060208201905081810360008301526117ca81611574565b9050919050565b600060208201905081810360008301526117ea81611597565b9050919050565b6000602082019050818103600083015261180a816115ba565b9050919050565b6000602082019050818103600083015261182a816115dd565b9050919050565b6000602082019050818103600083015261184a81611600565b9050919050565b60006020820190506118666000830184611623565b92915050565b600060e082019050611881600083018a611623565b61188e6020830189611493565b61189b6040830188611623565b6118a86060830187611623565b6118b56080830186611457565b6118c260a0830185611475565b6118cf60c0830184611466565b98975050505050505050565b60006040820190506118f06000830185611623565b6118fd6020830184611623565b9392505050565b60006060820190506119196000830186611623565b6119266020830185611623565b6119336040830184611623565b949350505050565b60006080820190506119506000830187611623565b61195d6020830186611623565b61196a6040830185611623565b6119776060830184611466565b95945050505050565b600082825260208201905092915050565b600061199c82611b12565b91506119a783611b12565b9250827fffffffffffffffffffffffffffffffffffffffffffffffffffffffffffffffff038211156119dc576119db611bf9565b5b828201905092915050565b60006119f282611b12565b91506119fd83611b12565b925082611a0d57611a0c611c28565b5b828204905092915050565b6000611a2382611b12565b9150611a2e83611b12565b9250817fffffffffffffffffffffffffffffffffffffffffffffffffffffffffffffffff0483118215151615611a6757611a66611bf9565b5b828202905092915050565b6000611a7d82611b12565b9150611a8883611b12565b925082821015611a9b57611a9a611bf9565b5b828203905092915050565b6000611ab182611af2565b9050919050565b6000611ac382611af2565b9050919050565b60008115159050919050565b6000611ae182611aa6565b9050919050565b6000819050919050565b600073ffffffffffffffffffffffffffffffffffffffff82169050919050565b6000819050919050565b600069ffffffffffffffffffff82169050919050565b6000611b3d82611b8c565b9050919050565b6000611b4f82611b56565b9050919050565b6000611b6182611af2565b9050919050565b6000611b7382611b7a565b9050919050565b6000611b8582611af2565b9050919050565b6000611b9782611b9e565b9050919050565b6000611ba982611af2565b9050919050565b6000611bbb82611b12565b91507fffffffffffffffffffffffffffffffffffffffffffffffffffffffffffffffff821415611bee57611bed611bf9565b5b600182019050919050565b7f4e487b7100000000000000000000000000000000000000000000000000000000600052601160045260246000fd5b7f4e487b7100000000000000000000000000000000000000000000000000000000600052601260045260246000fd5b7f4e6f20436861696e6c696e6b206665656420666f7220746f6b656e0000000000600082015250565b7f6974656d20616c726561647920736f6c64000000000000000000000000000000600082015250565b7f5072696365206d7573742062652067726561746572207468616e207a65726f00600082015250565b7f6e6f7420656e6f75676820657468657220746f20636f766572206974656d207060008201527f7269636520616e64206d61726b65742066656500000000000000000000000000602082015250565b7f556e737570706f7274656420746f6b656e000000000000000000000000000000600082015250565b7f6974656d20646f65736e27742065786973740000000000000000000000000000600082015250565b7f4f6e6c79207468652073656c6c65722063616e2064656c69737420746869732060008201527f6974656d00000000000000000000000000000000000000000000000000000000602082015250565b7f4974656d20646f65736e27742065786973740000000000000000000000000000600082015250565b7f5072696365206d757374206265203e3d20243130000000000000000000000000600082015250565b7f5265656e7472616e637947756172643a207265656e7472616e742063616c6c00600082015250565b7f4974656d20616c726561647920736f6c64000000000000000000000000000000600082015250565b611e6f81611aa6565b8114611e7a57600080fd5b50565b611e8681611ad6565b8114611e9157600080fd5b50565b611e9d81611ae8565b8114611ea857600080fd5b50565b611eb481611b12565b8114611ebf57600080fd5b50565b611ecb81611b1c565b8114611ed657600080fd5b5056fea2646970667358221220e02157ef764ae87770100afec5b59a5f15caa5e0c7c592c626d9cb507959b0ac64736f6c63430008040033",
  "linkReferences": {},
  "deployedLinkReferences": {}
}