{
  "_format": "hh-sol-artifact-1",
  "contractName": "NFT",
  "sourceName": "contracts/NFT.sol",
  "abi": [
    {
      "inputs": [],
      "stateMutability": "nonpayable",
      "type": "constructor"
    },
    {
      "anonymous": false,
      "inputs": [
        {
          "indexed": true,
          "internalType": "address",
          "name": "owner",
          "type": "address"
        },
        {
          "indexed": true,
          "internalType": "address",
          "name": "approved",
          "type": "address"
        },
        {
          "indexed": true,
          "internalType": "uint256",
          "name": "tokenId",
          "type": "uint256"
        }
      ],
      "name": "Approval",
      "type": "event"
    },
    {
      "anonymous": false,
      "inputs": [
        {
          "indexed": true,
          "internalType": "address",
          "name": "owner",
          "type": "address"
        },
        {
          "indexed": true,
          "internalType": "address",
          "name": "operator",
          "type": "address"
        },
        {
          "indexed": false,
          "internalType": "bool",
          "name": "approved",
          "type": "bool"
        }
      ],
      "name": "ApprovalForAll",
      "type": "event"
    },
    {
      "anonymous": false,
      "inputs": [
        {
          "indexed": false,
          "internalType": "uint256",
          "name": "_fromTokenId",
          "type": "uint256"
        },
        {
          "indexed": false,
          "internalType": "uint256",
          "name": "_toTokenId",
          "type": "uint256"
        }
      ],
      "name": "BatchMetadataUpdate",
      "type": "event"
    },
    {
      "anonymous": false,
      "inputs": [
        {
          "indexed": false,
          "internalType": "uint256",
          "name": "_tokenId",
          "type": "uint256"
        }
      ],
      "name": "MetadataUpdate",
      "type": "event"
    },
    {
      "anonymous": false,
      "inputs": [
        {
          "indexed": true,
          "internalType": "address",
          "name": "from",
          "type": "address"
        },
        {
          "indexed": true,
          "internalType": "address",
          "name": "to",
          "type": "address"
        },
        {
          "indexed": true,
          "internalType": "uint256",
          "name": "tokenId",
          "type": "uint256"
        }
      ],
      "name": "Transfer",
      "type": "event"
    },
    {
      "inputs": [
        {
          "internalType": "address",
          "name": "to",
          "type": "address"
        },
        {
          "internalType": "uint256",
          "name": "tokenId",
          "type": "uint256"
        }
      ],
      "name": "approve",
      "outputs": [],
      "stateMutability": "nonpayable",
      "type": "function"
    },
    {
      "inputs": [
        {
          "internalType": "address",
          "name": "owner",
          "type": "address"
        }
      ],
      "name": "balanceOf",
      "outputs": [
        {
          "internalType": "uint256",
          "name": "",
          "type": "uint256"
        }
      ],
      "stateMutability": "view",
      "type": "function"
    },
    {
      "inputs": [
        {
          "internalType": "uint256",
          "name": "tokenId",
          "type": "uint256"
        }
      ],
      "name": "getApproved",
      "outputs": [
        {
          "internalType": "address",
          "name": "",
          "type": "address"
        }
      ],
      "stateMutability": "view",
      "type": "function"
    },
    {
      "inputs": [
        {
          "internalType": "address",
          "name": "owner",
          "type": "address"
        },
        {
          "internalType": "address",
          "name": "operator",
          "type": "address"
        }
      ],
      "name": "isApprovedForAll",
      "outputs": [
        {
          "internalType": "bool",
          "name": "",
          "type": "bool"
        }
      ],
      "stateMutability": "view",
      "type": "function"
    },
    {
      "inputs": [
        {
          "internalType": "string",
          "name": "_tokenURI",
          "type": "string"
        }
      ],
      "name": "mint",
      "outputs": [
        {
          "internalType": "uint256",
          "name": "",
          "type": "uint256"
        }
      ],
      "stateMutability": "nonpayable",
      "type": "function"
    },
    {
      "inputs": [],
      "name": "name",
      "outputs": [
        {
          "internalType": "string",
          "name": "",
          "type": "string"
        }
      ],
      "stateMutability": "view",
      "type": "function"
    },
    {
      "inputs": [
        {
          "internalType": "uint256",
          "name": "tokenId",
          "type": "uint256"
        }
      ],
      "name": "ownerOf",
      "outputs": [
        {
          "internalType": "address",
          "name": "",
          "type": "address"
        }
      ],
      "stateMutability": "view",
      "type": "function"
    },
    {
      "inputs": [
        {
          "internalType": "address",
          "name": "from",
          "type": "address"
        },
        {
          "internalType": "address",
          "name": "to",
          "type": "address"
        },
        {
          "internalType": "uint256",
          "name": "tokenId",
          "type": "uint256"
        }
      ],
      "name": "safeTransferFrom",
      "outputs": [],
      "stateMutability": "nonpayable",
      "type": "function"
    },
    {
      "inputs": [
        {
          "internalType": "address",
          "name": "from",
          "type": "address"
        },
        {
          "internalType": "address",
          "name": "to",
          "type": "address"
        },
        {
          "internalType": "uint256",
          "name": "tokenId",
          "type": "uint256"
        },
        {
          "internalType": "bytes",
          "name": "data",
          "type": "bytes"
        }
      ],
      "name": "safeTransferFrom",
      "outputs": [],
      "stateMutability": "nonpayable",
      "type": "function"
    },
    {
      "inputs": [
        {
          "internalType": "address",
          "name": "operator",
          "type": "address"
        },
        {
          "internalType": "bool",
          "name": "approved",
          "type": "bool"
        }
      ],
      "name": "setApprovalForAll",
      "outputs": [],
      "stateMutability": "nonpayable",
      "type": "function"
    },
    {
      "inputs": [
        {
          "internalType": "bytes4",
          "name": "interfaceId",
          "type": "bytes4"
        }
      ],
      "name": "supportsInterface",
      "outputs": [
        {
          "internalType": "bool",
          "name": "",
          "type": "bool"
        }
      ],
      "stateMutability": "view",
      "type": "function"
    },
    {
      "inputs": [],
      "name": "symbol",
      "outputs": [
        {
          "internalType": "string",
          "name": "",
          "type": "string"
        }
      ],
      "stateMutability": "view",
      "type": "function"
    },
    {
      "inputs": [],
      "name": "tokenCount",
      "outputs": [
        {
          "internalType": "uint256",
          "name": "",
          "type": "uint256"
        }
      ],
      "stateMutability": "view",
      "type": "function"
    },
    {
      "inputs": [
        {
          "internalType": "uint256",
          "name": "tokenId",
          "type": "uint256"
        }
      ],
      "name": "tokenURI",
      "outputs": [
        {
          "internalType": "string",
          "name": "",
          "type": "string"
        }
      ],
      "stateMutability": "view",
      "type": "function"
    },
    {
      "inputs": [
        {
          "internalType": "address",
          "name": "from",
          "type": "address"
        },
        {
          "internalType": "address",
          "name": "to",
          "type": "address"
        },
        {
          "internalType": "uint256",
          "name": "tokenId",
          "type": "uint256"
        }
      ],
      "name": "transferFrom",
      "outputs": [],
      "stateMutability": "nonpayable",
      "type": "function"
    }
  ],
  "bytecode": "0x60806040523480156200001157600080fd5b506040518060400160405280600581526020017f53534832310000000000000000000000000000000000000000000000000000008152506040518060400160405280600381526020017f533231000000000000000000000000000000000000000000000000000000000081525081600090805190602001906200009692919062000424565b508060019080519060200190620000af92919062000424565b50505033600860006101000a81548173ffffffffffffffffffffffffffffffffffffffff021916908373ffffffffffffffffffffffffffffffffffffffff16021790555060005b600a8110156200014457600760008154809291906200011590620005b7565b91905055506200012e336007546200014b60201b60201c565b80806200013b90620005b7565b915050620000f6565b50620006b5565b600073ffffffffffffffffffffffffffffffffffffffff168273ffffffffffffffffffffffffffffffffffffffff161415620001be576040517f08c379a0000000000000000000000000000000000000000000000000000000008152600401620001b59062000544565b60405180910390fd5b620001cf816200039260201b60201c565b1562000212576040517f08c379a0000000000000000000000000000000000000000000000000000000008152600401620002099062000522565b60405180910390fd5b62000228600083836001620003db60201b60201c565b62000239816200039260201b60201c565b156200027c576040517f08c379a0000000000000000000000000000000000000000000000000000000008152600401620002739062000522565b60405180910390fd5b6001600360008473ffffffffffffffffffffffffffffffffffffffff1673ffffffffffffffffffffffffffffffffffffffff16815260200190815260200160002060008282540192505081905550816002600083815260200190815260200160002060006101000a81548173ffffffffffffffffffffffffffffffffffffffff021916908373ffffffffffffffffffffffffffffffffffffffff160217905550808273ffffffffffffffffffffffffffffffffffffffff16600073ffffffffffffffffffffffffffffffffffffffff167fddf252ad1be2c89b69c2b068fc378daa952ba7f163c4a11628f55a4df523b3ef60405160405180910390a46200038e600083836001620003e160201b60201c565b5050565b60008073ffffffffffffffffffffffffffffffffffffffff16620003bc83620003e760201b60201c565b73ffffffffffffffffffffffffffffffffffffffff1614159050919050565b50505050565b50505050565b60006002600083815260200190815260200160002060009054906101000a900473ffffffffffffffffffffffffffffffffffffffff169050919050565b828054620004329062000581565b90600052602060002090601f016020900481019282620004565760008555620004a2565b82601f106200047157805160ff1916838001178555620004a2565b82800160010185558215620004a2579182015b82811115620004a157825182559160200191906001019062000484565b5b509050620004b19190620004b5565b5090565b5b80821115620004d0576000816000905550600101620004b6565b5090565b6000620004e3601c8362000566565b9150620004f08262000663565b602082019050919050565b60006200050a60208362000566565b915062000517826200068c565b602082019050919050565b600060208201905081810360008301526200053d81620004d4565b9050919050565b600060208201905081810360008301526200055f81620004fb565b9050919050565b600082825260208201905092915050565b6000819050919050565b600060028204905060018216806200059a57607f821691505b60208210811415620005b157620005b062000634565b5b50919050565b6000620005c48262000577565b91507fffffffffffffffffffffffffffffffffffffffffffffffffffffffffffffffff821415620005fa57620005f962000605565b5b600182019050919050565b7f4e487b7100000000000000000000000000000000000000000000000000000000600052601160045260246000fd5b7f4e487b7100000000000000000000000000000000000000000000000000000000600052602260045260246000fd5b7f4552433732313a20746f6b656e20616c7265616479206d696e74656400000000600082015250565b7f4552433732313a206d696e7420746f20746865207a65726f2061646472657373600082015250565b612bcd80620006c56000396000f3fe608060405234801561001057600080fd5b50600436106100f55760003560e01c806370a0823111610097578063b88d4fde11610066578063b88d4fde14610284578063c87b56dd146102a0578063d85d3d27146102d0578063e985e9c514610300576100f5565b806370a08231146101fc57806395d89b411461022c5780639f181b5e1461024a578063a22cb46514610268576100f5565b8063095ea7b3116100d3578063095ea7b31461017857806323b872dd1461019457806342842e0e146101b05780636352211e146101cc576100f5565b806301ffc9a7146100fa57806306fdde031461012a578063081812fc14610148575b600080fd5b610114600480360381019061010f9190611f56565b610330565b6040516101219190612334565b60405180910390f35b610132610391565b60405161013f919061234f565b60405180910390f35b610162600480360381019061015d9190611fe9565b610423565b60405161016f91906122cd565b60405180910390f35b610192600480360381019061018d9190611f1a565b610469565b005b6101ae60048036038101906101a99190611e14565b610581565b005b6101ca60048036038101906101c59190611e14565b6105e1565b005b6101e660048036038101906101e19190611fe9565b610601565b6040516101f391906122cd565b60405180910390f35b61021660048036038101906102119190611daf565b610688565b6040516102239190612511565b60405180910390f35b610234610740565b604051610241919061234f565b60405180910390f35b6102526107d2565b60405161025f9190612511565b60405180910390f35b610282600480360381019061027d9190611ede565b6107d8565b005b61029e60048036038101906102999190611e63565b6107ee565b005b6102ba60048036038101906102b59190611fe9565b610850565b6040516102c7919061234f565b60405180910390f35b6102ea60048036038101906102e59190611fa8565b610963565b6040516102f79190612511565b60405180910390f35b61031a60048036038101906103159190611dd8565b610a2f565b6040516103279190612334565b60405180910390f35b6000634906490660e01b7bffffffffffffffffffffffffffffffffffffffffffffffffffffffff1916827bffffffffffffffffffffffffffffffffffffffffffffffffffffffff1916148061038a575061038982610ac3565b5b9050919050565b6060600080546103a0906126ac565b80601f01602080910402602001604051908101604052809291908181526020018280546103cc906126ac565b80156104195780601f106103ee57610100808354040283529160200191610419565b820191906000526020600020905b8154815290600101906020018083116103fc57829003601f168201915b5050505050905090565b600061042e82610ba5565b6004600083815260200190815260200160002060009054906101000a900473ffffffffffffffffffffffffffffffffffffffff169050919050565b600061047482610601565b90508073ffffffffffffffffffffffffffffffffffffffff168373ffffffffffffffffffffffffffffffffffffffff1614156104e5576040517f08c379a00000000000000000000000000000000000000000000000000000000081526004016104dc906124d1565b60405180910390fd5b8073ffffffffffffffffffffffffffffffffffffffff16610504610bf0565b73ffffffffffffffffffffffffffffffffffffffff16148061053357506105328161052d610bf0565b610a2f565b5b610572576040517f08c379a0000000000000000000000000000000000000000000000000000000008152600401610569906124f1565b60405180910390fd5b61057c8383610bf8565b505050565b61059261058c610bf0565b82610cb1565b6105d1576040517f08c379a00000000000000000000000000000000000000000000000000000000081526004016105c890612371565b60405180910390fd5b6105dc838383610d46565b505050565b6105fc838383604051806020016040528060008152506107ee565b505050565b60008061060d83611040565b9050600073ffffffffffffffffffffffffffffffffffffffff168173ffffffffffffffffffffffffffffffffffffffff16141561067f576040517f08c379a0000000000000000000000000000000000000000000000000000000008152600401610676906124b1565b60405180910390fd5b80915050919050565b60008073ffffffffffffffffffffffffffffffffffffffff168273ffffffffffffffffffffffffffffffffffffffff1614156106f9576040517f08c379a00000000000000000000000000000000000000000000000000000000081526004016106f090612431565b60405180910390fd5b600360008373ffffffffffffffffffffffffffffffffffffffff1673ffffffffffffffffffffffffffffffffffffffff168152602001908152602001600020549050919050565b60606001805461074f906126ac565b80601f016020809104026020016040519081016040528092919081815260200182805461077b906126ac565b80156107c85780601f1061079d576101008083540402835291602001916107c8565b820191906000526020600020905b8154815290600101906020018083116107ab57829003601f168201915b5050505050905090565b60075481565b6107ea6107e3610bf0565b838361107d565b5050565b6107ff6107f9610bf0565b83610cb1565b61083e576040517f08c379a000000000000000000000000000000000000000000000000000000000815260040161083590612371565b60405180910390fd5b61084a848484846111ea565b50505050565b606061085b82610ba5565b600060066000848152602001908152602001600020805461087b906126ac565b80601f01602080910402602001604051908101604052809291908181526020018280546108a7906126ac565b80156108f45780601f106108c9576101008083540402835291602001916108f4565b820191906000526020600020905b8154815290600101906020018083116108d757829003601f168201915b505050505090506000610905611246565b905060008151141561091b57819250505061095e565b6000825111156109505780826040516020016109389291906122a9565b6040516020818303038152906040529250505061095e565b6109598461125d565b925050505b919050565b6000600860009054906101000a900473ffffffffffffffffffffffffffffffffffffffff1673ffffffffffffffffffffffffffffffffffffffff163373ffffffffffffffffffffffffffffffffffffffff16146109f5576040517f08c379a00000000000000000000000000000000000000000000000000000000081526004016109ec90612471565b60405180910390fd5b60076000815480929190610a089061270f565b9190505550610a19336007546112c5565b610a25600754836112e3565b6007549050919050565b6000600560008473ffffffffffffffffffffffffffffffffffffffff1673ffffffffffffffffffffffffffffffffffffffff16815260200190815260200160002060008373ffffffffffffffffffffffffffffffffffffffff1673ffffffffffffffffffffffffffffffffffffffff16815260200190815260200160002060009054906101000a900460ff16905092915050565b60007f80ac58cd000000000000000000000000000000000000000000000000000000007bffffffffffffffffffffffffffffffffffffffffffffffffffffffff1916827bffffffffffffffffffffffffffffffffffffffffffffffffffffffff19161480610b8e57507f5b5e139f000000000000000000000000000000000000000000000000000000007bffffffffffffffffffffffffffffffffffffffffffffffffffffffff1916827bffffffffffffffffffffffffffffffffffffffffffffffffffffffff1916145b80610b9e5750610b9d8261138e565b5b9050919050565b610bae816113f8565b610bed576040517f08c379a0000000000000000000000000000000000000000000000000000000008152600401610be4906124b1565b60405180910390fd5b50565b600033905090565b816004600083815260200190815260200160002060006101000a81548173ffffffffffffffffffffffffffffffffffffffff021916908373ffffffffffffffffffffffffffffffffffffffff160217905550808273ffffffffffffffffffffffffffffffffffffffff16610c6b83610601565b73ffffffffffffffffffffffffffffffffffffffff167f8c5be1e5ebec7d5bd14f71427d1e84f3dd0314c0f7b2291e5b200ac8c7c3b92560405160405180910390a45050565b600080610cbd83610601565b90508073ffffffffffffffffffffffffffffffffffffffff168473ffffffffffffffffffffffffffffffffffffffff161480610cff5750610cfe8185610a2f565b5b80610d3d57508373ffffffffffffffffffffffffffffffffffffffff16610d2584610423565b73ffffffffffffffffffffffffffffffffffffffff16145b91505092915050565b8273ffffffffffffffffffffffffffffffffffffffff16610d6682610601565b73ffffffffffffffffffffffffffffffffffffffff1614610dbc576040517f08c379a0000000000000000000000000000000000000000000000000000000008152600401610db3906123b1565b60405180910390fd5b600073ffffffffffffffffffffffffffffffffffffffff168273ffffffffffffffffffffffffffffffffffffffff161415610e2c576040517f08c379a0000000000000000000000000000000000000000000000000000000008152600401610e23906123f1565b60405180910390fd5b610e398383836001611439565b8273ffffffffffffffffffffffffffffffffffffffff16610e5982610601565b73ffffffffffffffffffffffffffffffffffffffff1614610eaf576040517f08c379a0000000000000000000000000000000000000000000000000000000008152600401610ea6906123b1565b60405180910390fd5b6004600082815260200190815260200160002060006101000a81549073ffffffffffffffffffffffffffffffffffffffff02191690556001600360008573ffffffffffffffffffffffffffffffffffffffff1673ffffffffffffffffffffffffffffffffffffffff168152602001908152602001600020600082825403925050819055506001600360008473ffffffffffffffffffffffffffffffffffffffff1673ffffffffffffffffffffffffffffffffffffffff16815260200190815260200160002060008282540192505081905550816002600083815260200190815260200160002060006101000a81548173ffffffffffffffffffffffffffffffffffffffff021916908373ffffffffffffffffffffffffffffffffffffffff160217905550808273ffffffffffffffffffffffffffffffffffffffff168473ffffffffffffffffffffffffffffffffffffffff167fddf252ad1be2c89b69c2b068fc378daa952ba7f163c4a11628f55a4df523b3ef60405160405180910390a461103b838383600161143f565b505050565b60006002600083815260200190815260200160002060009054906101000a900473ffffffffffffffffffffffffffffffffffffffff169050919050565b8173ffffffffffffffffffffffffffffffffffffffff168373ffffffffffffffffffffffffffffffffffffffff1614156110ec576040517f08c379a00000000000000000000000000000000000000000000000000000000081526004016110e390612411565b60405180910390fd5b80600560008573ffffffffffffffffffffffffffffffffffffffff1673ffffffffffffffffffffffffffffffffffffffff16815260200190815260200160002060008473ffffffffffffffffffffffffffffffffffffffff1673ffffffffffffffffffffffffffffffffffffffff16815260200190815260200160002060006101000a81548160ff0219169083151502179055508173ffffffffffffffffffffffffffffffffffffffff168373ffffffffffffffffffffffffffffffffffffffff167f17307eab39ab6107e8899845ad3d59bd9653f200f220920489ca2b5937696c31836040516111dd9190612334565b60405180910390a3505050565b6111f5848484610d46565b61120184848484611445565b611240576040517f08c379a000000000000000000000000000000000000000000000000000000000815260040161123790612391565b60405180910390fd5b50505050565b606060405180602001604052806000815250905090565b606061126882610ba5565b6000611272611246565b9050600081511161129257604051806020016040528060008152506112bd565b8061129c846115dc565b6040516020016112ad9291906122a9565b6040516020818303038152906040525b915050919050565b6112df828260405180602001604052806000815250611700565b5050565b6112ec826113f8565b61132b576040517f08c379a000000000000000000000000000000000000000000000000000000000815260040161132290612451565b60405180910390fd5b80600660008481526020019081526020016000209080519060200190611352929190611bd3565b507ff8e1a15aba9398e019f0b49df1a4fde98ee17ae345cb5f6b5e2c27f5033e8ce7826040516113829190612511565b60405180910390a15050565b60007f01ffc9a7000000000000000000000000000000000000000000000000000000007bffffffffffffffffffffffffffffffffffffffffffffffffffffffff1916827bffffffffffffffffffffffffffffffffffffffffffffffffffffffff1916149050919050565b60008073ffffffffffffffffffffffffffffffffffffffff1661141a83611040565b73ffffffffffffffffffffffffffffffffffffffff1614159050919050565b50505050565b50505050565b60006114668473ffffffffffffffffffffffffffffffffffffffff1661175b565b156115cf578373ffffffffffffffffffffffffffffffffffffffff1663150b7a0261148f610bf0565b8786866040518563ffffffff1660e01b81526004016114b194939291906122e8565b602060405180830381600087803b1580156114cb57600080fd5b505af19250505080156114fc57506040513d601f19601f820116820180604052508101906114f99190611f7f565b60015b61157f573d806000811461152c576040519150601f19603f3d011682016040523d82523d6000602084013e611531565b606091505b50600081511415611577576040517f08c379a000000000000000000000000000000000000000000000000000000000815260040161156e90612391565b60405180910390fd5b805181602001fd5b63150b7a0260e01b7bffffffffffffffffffffffffffffffffffffffffffffffffffffffff1916817bffffffffffffffffffffffffffffffffffffffffffffffffffffffff1916149150506115d4565b600190505b949350505050565b6060600060016115eb8461177e565b01905060008167ffffffffffffffff811115611630577f4e487b7100000000000000000000000000000000000000000000000000000000600052604160045260246000fd5b6040519080825280601f01601f1916602001820160405280156116625781602001600182028036833780820191505090505b509050600082602001820190505b6001156116f5578080600190039150507f3031323334353637383961626364656600000000000000000000000000000000600a86061a8153600a85816116df577f4e487b7100000000000000000000000000000000000000000000000000000000600052601260045260246000fd5b04945060008514156116f0576116f5565b611670565b819350505050919050565b61170a83836119b5565b6117176000848484611445565b611756576040517f08c379a000000000000000000000000000000000000000000000000000000000815260040161174d90612391565b60405180910390fd5b505050565b6000808273ffffffffffffffffffffffffffffffffffffffff163b119050919050565b600080600090507a184f03e93ff9f4daa797ed6e38ed64bf6a1f0100000000000000008310611802577a184f03e93ff9f4daa797ed6e38ed64bf6a1f01000000000000000083816117f8577f4e487b7100000000000000000000000000000000000000000000000000000000600052601260045260246000fd5b0492506040810190505b6d04ee2d6d415b85acef81000000008310611865576d04ee2d6d415b85acef8100000000838161185b577f4e487b7100000000000000000000000000000000000000000000000000000000600052601260045260246000fd5b0492506020810190505b662386f26fc1000083106118ba57662386f26fc1000083816118b0577f4e487b7100000000000000000000000000000000000000000000000000000000600052601260045260246000fd5b0492506010810190505b6305f5e1008310611909576305f5e10083816118ff577f4e487b7100000000000000000000000000000000000000000000000000000000600052601260045260246000fd5b0492506008810190505b612710831061195457612710838161194a577f4e487b7100000000000000000000000000000000000000000000000000000000600052601260045260246000fd5b0492506004810190505b6064831061199d5760648381611993577f4e487b7100000000000000000000000000000000000000000000000000000000600052601260045260246000fd5b0492506002810190505b600a83106119ac576001810190505b80915050919050565b600073ffffffffffffffffffffffffffffffffffffffff168273ffffffffffffffffffffffffffffffffffffffff161415611a25576040517f08c379a0000000000000000000000000000000000000000000000000000000008152600401611a1c90612491565b60405180910390fd5b611a2e816113f8565b15611a6e576040517f08c379a0000000000000000000000000000000000000000000000000000000008152600401611a65906123d1565b60405180910390fd5b611a7c600083836001611439565b611a85816113f8565b15611ac5576040517f08c379a0000000000000000000000000000000000000000000000000000000008152600401611abc906123d1565b60405180910390fd5b6001600360008473ffffffffffffffffffffffffffffffffffffffff1673ffffffffffffffffffffffffffffffffffffffff16815260200190815260200160002060008282540192505081905550816002600083815260200190815260200160002060006101000a81548173ffffffffffffffffffffffffffffffffffffffff021916908373ffffffffffffffffffffffffffffffffffffffff160217905550808273ffffffffffffffffffffffffffffffffffffffff16600073ffffffffffffffffffffffffffffffffffffffff167fddf252ad1be2c89b69c2b068fc378daa952ba7f163c4a11628f55a4df523b3ef60405160405180910390a4611bcf60008383600161143f565b5050565b828054611bdf906126ac565b90600052602060002090601f016020900481019282611c015760008555611c48565b82601f10611c1a57805160ff1916838001178555611c48565b82800160010185558215611c48579182015b82811115611c47578251825591602001919060010190611c2c565b5b509050611c559190611c59565b5090565b5b80821115611c72576000816000905550600101611c5a565b5090565b6000611c89611c8484612551565b61252c565b905082815260208101848484011115611ca157600080fd5b611cac84828561266a565b509392505050565b6000611cc7611cc284612582565b61252c565b905082815260208101848484011115611cdf57600080fd5b611cea84828561266a565b509392505050565b600081359050611d0181612b3b565b92915050565b600081359050611d1681612b52565b92915050565b600081359050611d2b81612b69565b92915050565b600081519050611d4081612b69565b92915050565b600082601f830112611d5757600080fd5b8135611d67848260208601611c76565b91505092915050565b600082601f830112611d8157600080fd5b8135611d91848260208601611cb4565b91505092915050565b600081359050611da981612b80565b92915050565b600060208284031215611dc157600080fd5b6000611dcf84828501611cf2565b91505092915050565b60008060408385031215611deb57600080fd5b6000611df985828601611cf2565b9250506020611e0a85828601611cf2565b9150509250929050565b600080600060608486031215611e2957600080fd5b6000611e3786828701611cf2565b9350506020611e4886828701611cf2565b9250506040611e5986828701611d9a565b9150509250925092565b60008060008060808587031215611e7957600080fd5b6000611e8787828801611cf2565b9450506020611e9887828801611cf2565b9350506040611ea987828801611d9a565b925050606085013567ffffffffffffffff811115611ec657600080fd5b611ed287828801611d46565b91505092959194509250565b60008060408385031215611ef157600080fd5b6000611eff85828601611cf2565b9250506020611f1085828601611d07565b9150509250929050565b60008060408385031215611f2d57600080fd5b6000611f3b85828601611cf2565b9250506020611f4c85828601611d9a565b9150509250929050565b600060208284031215611f6857600080fd5b6000611f7684828501611d1c565b91505092915050565b600060208284031215611f9157600080fd5b6000611f9f84828501611d31565b91505092915050565b600060208284031215611fba57600080fd5b600082013567ffffffffffffffff811115611fd457600080fd5b611fe084828501611d70565b91505092915050565b600060208284031215611ffb57600080fd5b600061200984828501611d9a565b91505092915050565b61201b816125f6565b82525050565b61202a81612608565b82525050565b600061203b826125b3565b61204581856125c9565b9350612055818560208601612679565b61205e816127e5565b840191505092915050565b6000612074826125be565b61207e81856125da565b935061208e818560208601612679565b612097816127e5565b840191505092915050565b60006120ad826125be565b6120b781856125eb565b93506120c7818560208601612679565b80840191505092915050565b60006120e0602d836125da565b91506120eb826127f6565b604082019050919050565b60006121036032836125da565b915061210e82612845565b604082019050919050565b60006121266025836125da565b915061213182612894565b604082019050919050565b6000612149601c836125da565b9150612154826128e3565b602082019050919050565b600061216c6024836125da565b91506121778261290c565b604082019050919050565b600061218f6019836125da565b915061219a8261295b565b602082019050919050565b60006121b26029836125da565b91506121bd82612984565b604082019050919050565b60006121d5602e836125da565b91506121e0826129d3565b604082019050919050565b60006121f86014836125da565b915061220382612a22565b602082019050919050565b600061221b6020836125da565b915061222682612a4b565b602082019050919050565b600061223e6018836125da565b915061224982612a74565b602082019050919050565b60006122616021836125da565b915061226c82612a9d565b604082019050919050565b6000612284603d836125da565b915061228f82612aec565b604082019050919050565b6122a381612660565b82525050565b60006122b582856120a2565b91506122c182846120a2565b91508190509392505050565b60006020820190506122e26000830184612012565b92915050565b60006080820190506122fd6000830187612012565b61230a6020830186612012565b612317604083018561229a565b81810360608301526123298184612030565b905095945050505050565b60006020820190506123496000830184612021565b92915050565b600060208201905081810360008301526123698184612069565b905092915050565b6000602082019050818103600083015261238a816120d3565b9050919050565b600060208201905081810360008301526123aa816120f6565b9050919050565b600060208201905081810360008301526123ca81612119565b9050919050565b600060208201905081810360008301526123ea8161213c565b9050919050565b6000602082019050818103600083015261240a8161215f565b9050919050565b6000602082019050818103600083015261242a81612182565b9050919050565b6000602082019050818103600083015261244a816121a5565b9050919050565b6000602082019050818103600083015261246a816121c8565b9050919050565b6000602082019050818103600083015261248a816121eb565b9050919050565b600060208201905081810360008301526124aa8161220e565b9050919050565b600060208201905081810360008301526124ca81612231565b9050919050565b600060208201905081810360008301526124ea81612254565b9050919050565b6000602082019050818103600083015261250a81612277565b9050919050565b6000602082019050612526600083018461229a565b92915050565b6000612536612547565b905061254282826126de565b919050565b6000604051905090565b600067ffffffffffffffff82111561256c5761256b6127b6565b5b612575826127e5565b9050602081019050919050565b600067ffffffffffffffff82111561259d5761259c6127b6565b5b6125a6826127e5565b9050602081019050919050565b600081519050919050565b600081519050919050565b600082825260208201905092915050565b600082825260208201905092915050565b600081905092915050565b600061260182612640565b9050919050565b60008115159050919050565b60007fffffffff0000000000000000000000000000000000000000000000000000000082169050919050565b600073ffffffffffffffffffffffffffffffffffffffff82169050919050565b6000819050919050565b82818337600083830152505050565b60005b8381101561269757808201518184015260208101905061267c565b838111156126a6576000848401525b50505050565b600060028204905060018216806126c457607f821691505b602082108114156126d8576126d7612787565b5b50919050565b6126e7826127e5565b810181811067ffffffffffffffff82111715612706576127056127b6565b5b80604052505050565b600061271a82612660565b91507fffffffffffffffffffffffffffffffffffffffffffffffffffffffffffffffff82141561274d5761274c612758565b5b600182019050919050565b7f4e487b7100000000000000000000000000000000000000000000000000000000600052601160045260246000fd5b7f4e487b7100000000000000000000000000000000000000000000000000000000600052602260045260246000fd5b7f4e487b7100000000000000000000000000000000000000000000000000000000600052604160045260246000fd5b6000601f19601f8301169050919050565b7f4552433732313a2063616c6c6572206973206e6f7420746f6b656e206f776e6560008201527f72206f7220617070726f76656400000000000000000000000000000000000000602082015250565b7f4552433732313a207472616e7366657220746f206e6f6e20455243373231526560008201527f63656976657220696d706c656d656e7465720000000000000000000000000000602082015250565b7f4552433732313a207472616e736665722066726f6d20696e636f72726563742060008201527f6f776e6572000000000000000000000000000000000000000000000000000000602082015250565b7f4552433732313a20746f6b656e20616c7265616479206d696e74656400000000600082015250565b7f4552433732313a207472616e7366657220746f20746865207a65726f2061646460008201527f7265737300000000000000000000000000000000000000000000000000000000602082015250565b7f4552433732313a20617070726f766520746f2063616c6c657200000000000000600082015250565b7f4552433732313a2061646472657373207a65726f206973206e6f74206120766160008201527f6c6964206f776e65720000000000000000000000000000000000000000000000602082015250565b7f45524337323155524953746f726167653a2055524920736574206f66206e6f6e60008201527f6578697374656e7420746f6b656e000000000000000000000000000000000000602082015250565b7f4f6e6c79206f776e65722063616e206d696e7420000000000000000000000000600082015250565b7f4552433732313a206d696e7420746f20746865207a65726f2061646472657373600082015250565b7f4552433732313a20696e76616c696420746f6b656e2049440000000000000000600082015250565b7f4552433732313a20617070726f76616c20746f2063757272656e74206f776e6560008201527f7200000000000000000000000000000000000000000000000000000000000000602082015250565b7f4552433732313a20617070726f76652063616c6c6572206973206e6f7420746f60008201527f6b656e206f776e6572206f7220617070726f76656420666f7220616c6c000000602082015250565b612b44816125f6565b8114612b4f57600080fd5b50565b612b5b81612608565b8114612b6657600080fd5b50565b612b7281612614565b8114612b7d57600080fd5b50565b612b8981612660565b8114612b9457600080fd5b5056fea2646970667358221220217d3366384815b955b0c2558be3e5dfd81ea2eebbbf619a0576a2cada25f92264736f6c63430008040033",
  "linkReferences": {},
  "deployedLinkReferences": {}
}